{
  "contractName": "hash",
  "abi": [
    {
      "inputs": [],
      "payable": false,
      "stateMutability": "nonpayable",
      "type": "constructor"
    },
    {
      "anonymous": false,
      "inputs": [
        {
          "indexed": false,
          "name": "x",
          "type": "string"
        }
      ],
      "name": "log",
      "type": "event"
    },
    {
      "constant": true,
      "inputs": [
        {
          "name": "x",
          "type": "string"
        },
        {
          "name": "y",
          "type": "string"
        }
      ],
      "name": "get",
      "outputs": [
        {
          "name": "",
          "type": "bytes32"
        }
      ],
      "payable": false,
      "stateMutability": "pure",
      "type": "function"
    }
  ],
  "bytecode": "0x608060405234801561001057600080fd5b507f41304facd9323d75b11bcdd609cb38effffdb05710f7caf0e9b16c6d9d709f5060405180806020018281038252600d8152602001807f6c6f67207468697320736869740000000000000000000000000000000000000081525060200191505060405180910390a16101ff806100886000396000f300608060405260043610610041576000357c0100000000000000000000000000000000000000000000000000000000900463ffffffff1680633e10510b14610046575b600080fd5b34801561005257600080fd5b506100f3600480360381019080803590602001908201803590602001908080601f0160208091040260200160405190810160405280939291908181526020018383808284378201915050505050509192919290803590602001908201803590602001908080601f0160208091040260200160405190810160405280939291908181526020018383808284378201915050505050509192919290505050610111565b60405180826000191660001916815260200191505060405180910390f35b600082826040518083805190602001908083835b60208310151561014a5780518252602082019150602081019050602083039250610125565b6001836020036101000a03801982511681845116808217855250505050505090500182805190602001908083835b60208310151561019d5780518252602082019150602081019050602083039250610178565b6001836020036101000a0380198251168184511680821785525050505050509050019250505060405180910390209050929150505600a165627a7a72305820caf37ef57d1dd0ccc902f22fc923a9745320ed31f2efcd0e683af1414d55670c0029",
  "source": "pragma solidity ^0.4.21;\n\n\n/** @title A contract to compute and return the keccak256 hash of two strings */\ncontract hash {\n\n    // log event for debugging\n    event log(string x);\n\n    constructor () public {\n        emit log(\"log this shit\");\n    }\n\n    /**\n    * The return type should be bytes32.\n    * @return s Rectangle surface\n    */\n    function get(string x, string y) public pure returns(bytes32) {\n        return keccak256(x,y);\n    }\n}\n",
  "sourcePath": "/Users/petertao/Desktop/remix/test/contracts/hash.sol",
  "compiler": {
    "name": "solc",
    "version": "0.4.23+commit.124ca40d.Emscripten.clang"
  },
  "schemaVersion": "2.0.0",
  "updatedAt": "2018-04-22T17:26:30.759Z"
}