{
  "contractName": "RPS",
  "abi": [
    {
      "constant": true,
      "inputs": [],
      "name": "p1",
      "outputs": [
        {
          "name": "",
          "type": "address"
        }
      ],
      "payable": false,
      "stateMutability": "view",
      "type": "function"
    },
    {
      "inputs": [],
      "payable": false,
      "stateMutability": "nonpayable",
      "type": "constructor"
    },
    {
      "anonymous": false,
      "inputs": [
        {
          "indexed": false,
          "name": "x",
          "type": "address"
        }
      ],
      "name": "log",
      "type": "event"
    },
    {
      "anonymous": false,
      "inputs": [
        {
          "indexed": false,
          "name": "x",
          "type": "string"
        }
      ],
      "name": "log",
      "type": "event"
    },
    {
      "constant": false,
      "inputs": [
        {
          "name": "_commitment",
          "type": "bytes32"
        }
      ],
      "name": "p1_commit",
      "outputs": [],
      "payable": true,
      "stateMutability": "payable",
      "type": "function"
    },
    {
      "constant": false,
      "inputs": [
        {
          "name": "_play",
          "type": "string"
        }
      ],
      "name": "p2_join",
      "outputs": [],
      "payable": true,
      "stateMutability": "payable",
      "type": "function"
    },
    {
      "constant": false,
      "inputs": [
        {
          "name": "_play",
          "type": "string"
        },
        {
          "name": "_salt",
          "type": "string"
        }
      ],
      "name": "p1_reveal",
      "outputs": [],
      "payable": false,
      "stateMutability": "nonpayable",
      "type": "function"
    },
    {
      "constant": false,
      "inputs": [],
      "name": "p2_payout",
      "outputs": [],
      "payable": false,
      "stateMutability": "nonpayable",
      "type": "function"
    },
    {
      "constant": false,
      "inputs": [
        {
          "name": "_commitment",
          "type": "bytes32"
        }
      ],
      "name": "p1_replay",
      "outputs": [],
      "payable": false,
      "stateMutability": "nonpayable",
      "type": "function"
    },
    {
      "constant": false,
      "inputs": [
        {
          "name": "_play",
          "type": "string"
        }
      ],
      "name": "p2_replay",
      "outputs": [],
      "payable": false,
      "stateMutability": "nonpayable",
      "type": "function"
    }
  ],
  "bytecode": "0x608060405234801561001057600080fd5b50336000806101000a81548173ffffffffffffffffffffffffffffffffffffffff021916908373ffffffffffffffffffffffffffffffffffffffff1602179055507f2c2ecbc2212ac38c2f9ec89aa5fcef7f532a5db24dbf7cad1f48bc82843b74286000809054906101000a900473ffffffffffffffffffffffffffffffffffffffff16604051808273ffffffffffffffffffffffffffffffffffffffff1673ffffffffffffffffffffffffffffffffffffffff16815260200191505060405180910390a1610fe6806100e46000396000f300608060405260043610610083576000357c0100000000000000000000000000000000000000000000000000000000900463ffffffff1680632269c4c4146100885780633af925f2146100b95780633d2baad1146100d0578063710742ae1461010b57806371b7210a1461015e578063c2a2747b14610182578063d9f4e193146101d9575b600080fd5b34801561009457600080fd5b506100b76004803603810190808035600019169060200190929190505050610207565b005b3480156100c557600080fd5b506100ce61028c565b005b3480156100dc57600080fd5b506101096004803603810190808035906020019082018035906020019190919293919293905050506102e6565b005b34801561011757600080fd5b5061015c60048036038101908080359060200190820180359060200191909192939192939080359060200190820180359060200191909192939192939050505061045d565b005b61018060048036038101908080356000191690602001909291905050506108c4565b005b34801561018e57600080fd5b50610197610943565b604051808273ffffffffffffffffffffffffffffffffffffffff1673ffffffffffffffffffffffffffffffffffffffff16815260200191505060405180910390f35b610205600480360381019080803590602001908201803590602001919091929391929390505050610968565b005b3373ffffffffffffffffffffffffffffffffffffffff166000809054906101000a900473ffffffffffffffffffffffffffffffffffffffff1673ffffffffffffffffffffffffffffffffffffffff1614151561026257600080fd5b6000600102600019166003546000191614151561027e57600080fd5b806003816000191690555050565b6000600554141580156102a45750601e600554420310155b156102e457600160009054906101000a900473ffffffffffffffffffffffffffffffffffffffff1673ffffffffffffffffffffffffffffffffffffffff16ff5b565b3373ffffffffffffffffffffffffffffffffffffffff16600160009054906101000a900473ffffffffffffffffffffffffffffffffffffffff1673ffffffffffffffffffffffffffffffffffffffff1614151561034257600080fd5b6103f660048054600181600116156101000203166002900480601f0160208091040260200160405190810160405280929190818152602001828054600181600116156101000203166002900480156103db5780601f106103b0576101008083540402835291602001916103db565b820191906000526020600020905b8154815290600101906020018083116103be57829003601f168201915b50505050506020604051908101604052806000815250610a73565b151561040157600080fd5b61043c82828080601f016020809104026020016040519081016040528093929190818152602001838380828437820191505050505050610b4c565b151561044757600080fd5b818160049190610458929190610e95565b505050565b6000600354600019168585858560405180858580828437820191505083838082843782019150509450505050506040518091039020600019161415156104a257600080fd5b6000809054906101000a900473ffffffffffffffffffffffffffffffffffffffff1673ffffffffffffffffffffffffffffffffffffffff163373ffffffffffffffffffffffffffffffffffffffff161415156104fd57600080fd5b600073ffffffffffffffffffffffffffffffffffffffff16600160009054906101000a900473ffffffffffffffffffffffffffffffffffffffff1673ffffffffffffffffffffffffffffffffffffffff16141561058e576000809054906101000a900473ffffffffffffffffffffffffffffffffffffffff1673ffffffffffffffffffffffffffffffffffffffff16ff5b6000600654141580156105a65750601e600654420310155b156105e5576000809054906101000a900473ffffffffffffffffffffffffffffffffffffffff1673ffffffffffffffffffffffffffffffffffffffff16ff5b6106bb60048054600181600116156101000203166002900480601f01602080910402602001604051908101604052809291908181526020018280546001816001161561010002031660029004801561067e5780601f106106535761010080835404028352916020019161067e565b820191906000526020600020905b81548152906001019060200180831161066157829003601f168201915b505050505086868080601f016020809104026020016040519081016040528093929190818152602001838380828437820191505050505050610c20565b905060008160ff16141561076c577f41304facd9323d75b11bcdd609cb38effffdb05710f7caf0e9b16c6d9d709f506040518080602001828103825260048152602001807f746965210000000000000000000000000000000000000000000000000000000081525060200191505060405180910390a1600060010260038160001916905550602060405190810160405280600081525060049080519060200190610766929190610f15565b506108bd565b60018160ff16141561081a577f41304facd9323d75b11bcdd609cb38effffdb05710f7caf0e9b16c6d9d709f506040518080602001828103825260078152602001807f703120776f6e210000000000000000000000000000000000000000000000000081525060200191505060405180910390a16000809054906101000a900473ffffffffffffffffffffffffffffffffffffffff1673ffffffffffffffffffffffffffffffffffffffff16ff5b7f41304facd9323d75b11bcdd609cb38effffdb05710f7caf0e9b16c6d9d709f506040518080602001828103825260078152602001807f703220776f6e210000000000000000000000000000000000000000000000000081525060200191505060405180910390a1600160009054906101000a900473ffffffffffffffffffffffffffffffffffffffff1673ffffffffffffffffffffffffffffffffffffffff16ff5b5050505050565b6000809054906101000a900473ffffffffffffffffffffffffffffffffffffffff1673ffffffffffffffffffffffffffffffffffffffff163373ffffffffffffffffffffffffffffffffffffffff1614151561091f57600080fd5b60003411151561092e57600080fd5b34600281905550806003816000191690555050565b6000809054906101000a900473ffffffffffffffffffffffffffffffffffffffff1681565b600073ffffffffffffffffffffffffffffffffffffffff16600160009054906101000a900473ffffffffffffffffffffffffffffffffffffffff1673ffffffffffffffffffffffffffffffffffffffff161415156109c557600080fd5b610a0082828080601f016020809104026020016040519081016040528093929190818152602001838380828437820191505050505050610b4c565b1515610a0b57600080fd5b6002543410151515610a1c57600080fd5b33600160006101000a81548173ffffffffffffffffffffffffffffffffffffffff021916908373ffffffffffffffffffffffffffffffffffffffff160217905550818160049190610a6e929190610e95565b505050565b6000816040518082805190602001908083835b602083101515610aab5780518252602082019150602081019050602083039250610a86565b6001836020036101000a038019825116818451168082178552505050505050905001915050604051809103902060001916836040518082805190602001908083835b602083101515610b125780518252602082019150602081019050602083039250610aed565b6001836020036101000a03801982511681845116808217855250505050505090500191505060405180910390206000191614905092915050565b6000610b8d826040805190810160405280600481526020017f526f636b00000000000000000000000000000000000000000000000000000000815250610a73565b80610bd35750610bd2826040805190810160405280600581526020017f5061706572000000000000000000000000000000000000000000000000000000815250610a73565b5b80610c195750610c18826040805190810160405280600881526020017f53636973736f7273000000000000000000000000000000000000000000000000815250610a73565b5b9050919050565b6000610c61836040805190810160405280600481526020017f526f636b00000000000000000000000000000000000000000000000000000000815250610a73565b15610d0957610ca5826040805190810160405280600481526020017f526f636b00000000000000000000000000000000000000000000000000000000815250610a73565b15610cb35760009050610e8f565b610cf2826040805190810160405280600881526020017f53636973736f7273000000000000000000000000000000000000000000000000815250610a73565b15610d005760019050610e8f565b60029050610e8f565b610d48836040805190810160405280600581526020017f5061706572000000000000000000000000000000000000000000000000000000815250610a73565b15610df057610d8c826040805190810160405280600481526020017f526f636b00000000000000000000000000000000000000000000000000000000815250610a73565b15610d9a5760019050610e8f565b610dd9826040805190810160405280600881526020017f53636973736f7273000000000000000000000000000000000000000000000000815250610a73565b15610de75760029050610e8f565b60009050610e8f565b610e2f826040805190810160405280600481526020017f526f636b00000000000000000000000000000000000000000000000000000000815250610a73565b15610e3d5760029050610e8f565b610e7c826040805190810160405280600881526020017f53636973736f7273000000000000000000000000000000000000000000000000815250610a73565b15610e8a5760009050610e8f565b600190505b92915050565b828054600181600116156101000203166002900490600052602060002090601f016020900481019282601f10610ed657803560ff1916838001178555610f04565b82800160010185558215610f04579182015b82811115610f03578235825591602001919060010190610ee8565b5b509050610f119190610f95565b5090565b828054600181600116156101000203166002900490600052602060002090601f016020900481019282601f10610f5657805160ff1916838001178555610f84565b82800160010185558215610f84579182015b82811115610f83578251825591602001919060010190610f68565b5b509050610f919190610f95565b5090565b610fb791905b80821115610fb3576000816000905550600101610f9b565b5090565b905600a165627a7a723058204b9914cd6cddfd686f321a9c979749a7a78a3451a4c6682726fbdd0fee33514c0029",
  "source": "pragma solidity ^0.4.21;\n\n\n/** @title Rock Paper Scissors game */\ncontract RPS {\n\n    // the address of player 1\n    address public p1;\n\n    address p2;\n\n    // the stake of the game. set by p1\n    uint256 stake;\n\n    // the hashed value of p1's play (RPS) with a salt\n    bytes32 commitment;\n\n    // player 2's play\n    string private p2_play;\n\n    // timestamp of last p1 move (only used for replays)\n    uint p1_timestamp;\n\n    // timestamp of last p2 move (only used for replays)\n    uint p2_timestamp;\n\n    // event logging\n    event log(address x);\n    event log(string x);\n\n    /**\n     * Constructor that sets creator as player 1\n     */\n    constructor() public {\n        p1 = msg.sender;\n        emit log(p1);\n    }\n\n    /**\n     * Player 1 commits their stake in the game. Amount must be strictly greater\n     * than 0. Only callable by player 1, who is set in the constructor.\n     *\n     * @param _commitment is the output of a keccak256 hash of “Rock”, “Paper”,\n     * or “Scissors” and a salt value.\n     */\n    function p1_commit(bytes32 _commitment) public payable {\n\n        // only callable by p1\n        require(msg.sender == p1);\n\n        // amount must be strictly greater than 0\n        require(msg.value > 0);\n\n        stake = msg.value;\n        commitment = _commitment;\n\n    }\n\n    /**\n     * Player 2 joins the game by inputting \"Rock\", \"Paper\", or \"Scissors\"\n     * Does nothing if there are already two players\n     * Play must be either “Rock”, “Paper”, or “Scissors”\n     * Must be at least enough ethereum as the stake of the game\n     * Sets player 2 as msg.sender (p2)\n     *\n     * @param _play is player 2's choice of Rock, Paper, or Scissors\n     */\n\n    function p2_join(string _play) external payable {\n\n        // Does nothing if there are already two players\n        require(p2==address(0));\n\n        // Play must be either “Rock”, “Paper”, or “Scissors”\n        require(is_valid_play(_play));\n\n        // Must be at least enough ethereum as the stake of the game\n        require(msg.value >= stake);\n\n        // p2 is msg.sender\n        p2 = msg.sender;\n\n        p2_play = _play;\n    }\n\n    /**\n     * Player 1 reveals their play.\n     *\n     * @param _play is “Rock”, “Paper”, or “Scissors”\n     * @param _salt is the original salt used to generate the commitment\n     */\n    function p1_reveal(string _play, string _salt) external {\n\n        // keccak256(_play,_salt) should be equal to the commitment provided\n        // when the contract was created\n        require(keccak256(_play,_salt)==commitment);\n\n        // called by player 1 only\n        require(msg.sender == p1);\n\n        // if no other player has joined, cancel the contract, refunding the\n        // stored ether to player 1.\n        if (p2==address(0)) {\n            selfdestruct(p1);\n        }\n\n        // After a tie, if player 2 has not moved for as least 30 seconds,\n        // p1 wins\n        //\n        if(p2_timestamp != 0 && block.timestamp - p2_timestamp >= 30) {\n            selfdestruct(p1);\n        }\n\n\n        // determine the winner\n        uint8 winner = get_winner(p2_play, _play);\n        if(winner == 0) {\n            // tie\n            emit log(\"tie!\");\n            // reset moves\n            commitment = bytes32(0);\n            p2_play = \"\";\n        } else if(winner == 1) {\n            // player 1 won\n            emit log(\"p1 won!\");\n            selfdestruct(p1);\n\n        } else {\n            // player 2 won\n            emit log(\"p2 won!\");\n            selfdestruct(p2);\n\n\n\n        }\n    }\n\n    /**\n     * if it’s been at least 30 seconds since player 1 has made a move,\n     * kill the contract and send the balance to player 2\n     */\n    function p2_payout() external {\n        if(p1_timestamp != 0 && block.timestamp - p1_timestamp >= 30) {\n            selfdestruct(p2);\n        }\n    }\n\n    /**\n     * P1 replay move in case of tie\n     *\n     * @param _commitment the new hash of p1 move + salt\n     */\n    function p1_replay(bytes32 _commitment) external {\n        // player 1 only\n        require(p1 == msg.sender);\n\n        // only if player 1 has no valid play stored\n        // (because a tie was declared)\n        require(commitment == bytes32(0));\n\n        // sets player 1’s commitment to _commitment\n        commitment = _commitment;\n\n    }\n\n\n    /**\n     * p2 replay move in case of tie\n     *\n     * @param _play is the new play\n     */\n    function p2_replay(string _play) external {\n        // player 2 only\n        require(p2 == msg.sender);\n\n        // only if player 2 has no valid play stored (because a tie was declared)\n        require(is_equal(p2_play, \"\"));\n\n        // stores play as player 2’s play (should be “Rock”, “Paper”, or “Scissors”)\n        require(is_valid_play(_play));\n        p2_play = _play;\n    }\n\n\n    /**\n     * Determines if the play is valid (\"Rock\", \"Paper\", or \"Scissors\")\n     *\n     * @return bool\n     */\n    function is_valid_play(string play) private pure returns(bool) {\n        return is_equal(play, \"Rock\") ||\n                is_equal(play, \"Paper\") ||\n                is_equal(play, \"Scissors\");\n    }\n\n    /**\n     * gets the winner of rock paper Scissors\n     *\n     * @param play1 is the play of p1\n     * @param play2 is the play of p2\n     *\n     * @return uint8 0 means tie, 1 means p1 wins, 2 means p2 wins\n     */\n    function get_winner(string play1, string play2) private pure returns(uint8) {\n        if(is_equal(play1, \"Rock\")) {\n            if(is_equal(play2, \"Rock\")) {\n                return 0;\n            } else if(is_equal(play2, \"Scissors\")) {\n                return 1;\n            } else {\n                return 2;\n            }\n        } else if(is_equal(play1, \"Paper\")) {\n            if(is_equal(play2, \"Rock\")) {\n                return 1;\n            } else if(is_equal(play2, \"Scissors\")) {\n                return 2;\n            } else {\n                return 0;\n            }\n        } else {\n            // player 1 chose Scissors\n            if(is_equal(play2, \"Rock\")) {\n                return 2;\n            } else if(is_equal(play2, \"Scissors\")) {\n                return 0;\n            } else {\n                return 1;\n            }\n        }\n    }\n\n\n    function is_equal(string x, string y) pure private returns(bool) {\n        return keccak256(x)==keccak256(y);\n    }\n\n\n}\n",
  "sourcePath": "/Users/petertao/Desktop/remix/test/contracts/RPS.sol",
  "compiler": {
    "name": "solc",
    "version": "0.4.23+commit.124ca40d.Emscripten.clang"
  },
  "schemaVersion": "2.0.0",
  "updatedAt": "2018-04-22T17:26:30.770Z"
}